:020000040800F2
:1000000030680020450100083F1E0008AF1D0008B1
:100010003D1E00086F020008212B000800000000B0
:10002000000000000000000000000000212800087F
:100030000B03000800000000611E000823280008D0
:100040005F0100085F0100085F0100085F01000810
:100050005F0100085F0100085F0100085F01000800
:100060005F0100085F0100085F0100085F010008F0
:100070005F0100085F0100085F0100085F010008E0
:100080005F0100085F0100085F0100085F010008D0
:100090005F0100085F0100085F0100085F010008C0
:1000A0005F0100085F0100085F0100085F010008B0
:1000B0005F0100085F0100085F0100085F010008A0
:1000C0005F0100085F0100085F0100085F01000890
:1000D0005F0100085F0100085F0100085F01000880
:1000E0005F0100085F0100085F0100085F01000870
:1000F0005F0100085F0100085F0100085F01000860
:100100005F0100082D1F00085F0100085F01000863
:100110005F0100085F0100085F0100085F0100083F
:100120005F0100085F010008D50200085F010008B8
:10013000DFF80CD000F040F80048004749420008C2
:10014000306800200648804706480047FEE7FEE783
:10015000FEE7FEE7FEE7FEE7FEE7FEE7FEE7FEE777
:100160007928000831010008D2B201E000F8012B23
:10017000491EFBD270470022F6E710B513460A4627
:1001800004461946FFF7F0FF204610BD30B50B4678
:10019000014600202022012409E021FA02F59D42B7
:1001A00005D303FA02F5491B04FA02F52844151E8B
:1001B000A2F10102F1DC30BD064C074D06E0E0681B
:1001C00040F0010394E8070098471034AC42F6D39E
:1001D000FFF7B2FFD04C0008F04C00087047000059
:1001E0000146014801F05EB96800002010B50448DE
:1001F00001F06AF9042801D0012010BD002010BDD3
:100200006800002082B001208DF800009DF80000F9
:10021000012802D0012002B07047024802B001F06C
:1002200049BA00006800002038B500240093134646
:100230000A460146034801F0CDFA00B101242046E8
:1002400038BD0000680000207047000038B5002469
:10025000009313460A460146034801F09DFB00B196
:100260000124204638BD0000680000207047FEE7EA
:1002700010B5446A204600F091F80120207110BDAD
:1002800010B5446A204600F065F80120207110BDC9
:1002900010B5446A206940F004002061204600F057
:1002A000A1F80120207110BD10B5446A206940F00A
:1002B00004002061204600F04FF80120207110BD9D
:1002C00010B5406A00F07CF810BD10B5406A00F02F
:1002D00042F810BD014800F023BA0000C8250020F4
:1002E00030B590F840500124AC40C56B6C60046898
:1002F00063604368102B036803D099600068C26094
:1003000030BD9A600068C16030BD70477047002200
:10031000AFF3008030B50E4B054601205C7A012C0E
:1003200015D8587A00241C54587A03EB8000456095
:100330005D7A03F108002A54587A421C5A72303010
:1003400008703A2048702F208870CC70002030BD93
:100350002428002070477047704770B54379012BFF
:100360001AD00124447102230371D1E900310568D8
:100370000B43296840F6FE769640B14393401943FB
:10038000296001680B68C0259540AB430B60047180
:1003900000214171084670BD022070BD0748064922
:1003A0004160012181704169491E41614169002913
:1003B00000D1017070470000C82300200000002019
:1003C000074806494160012141704169491E416168
:1003D0004169002900D1017070470000C821002048
:1003E00000000020704770B5040003D0207900257C
:1003F00010B105E0012070BD6571204600F008F8DD
:1004000002202071256101202071002070BD0000B4
:10041000F0B585B000250646009501950295039537
:100420000068194988422CD11849C86940F0005029
:10043000C861C86900F000500490886940F0040069
:1004400088618869102700F0040004900320CDE93A
:10045000007069460E4800F00FFB0F4C0D48C4E9D0
:1004600000078020C4E9025020202561C4E905501E
:100470002046E56100F078FA08B1FFF747FFB46065
:10048000666205B0F0BD000000740040001002403C
:100490000008014030040240C82500202DE9F04149
:1004A00004460D461746617900220698012920D09E
:1004B0000126667102212171F5B1D4F80CC02C49D6
:1004C000CCF82810D4F80CC02A49CCF82C10D4F859
:1004D0000CC02949CCF830102168D1F800C04CF08C
:1004E000805CC1F800C068B304282ED0082831D140
:1004F0002EE00220BDE8F081D4F808C01F49CCF8F6
:100500002810D4F808C01E49CCF82C10D4F808C024
:100510001C49CCF830102168D1F800C04CF4805C44
:10052000C1F800C020B1042805D0082808D105E092
:100530002268083204E022680C3201E0226810329E
:10054000A06808E02268143204E02268183201E052
:1005500022681C32E068394600F044FA00206071DD
:1005600020680168AE40314301600020C2E700000E
:1005700081020008CB020008A902000871020008ED
:10058000C10200089102000870B5044600680268C4
:100590004FF480538B409A43026020680268012523
:1005A00005FA01F39A43026031B1E06800F008F8FF
:1005B00020B10421217170BDA068F7E7257170BDDD
:1005C00001680A6822F00E020A6001680A6822F0D7
:1005D00001020A6090F84020C36B012101FA02F287
:1005E0005A6080F82110002180F8201008467047DA
:1005F0002DE9F05F90F821100024022903D0042196
:100600008163012485E001680A6822F00E020A6015
:1006100001680A6822F001020A603F4E3E4FB2159F
:10062000DFF8F4C0DFF8F090DFF8ECA0DFF8E8B016
:10063000DFF8E4E00168783F13011502ACF1640CC7
:10064000A9F15009AAF13C0AABF1280BAEF1140E46
:100650004FF48018B14227D9B9420ED0614512D06B
:1006600049451DD0514518D0594518D0714501D183
:10067000424615E0294EB14201D1012210E0274E39
:100680001436B14201D110220AE0244E2836B1427C
:1006900006D0224A3C32914201D11A4600E02A4655
:1006A0001E49091F0A602BE0B94213D0614517D0DB
:1006B000494522D051451DD059451DD0714501D124
:1006C00042461AE0B14202D14FF0807215E0134E5B
:1006D000B14201D1012210E0104E1436B14201D1D5
:1006E00010220AE00D4E2836B14206D00B4A3C32A9
:1006F000914201D11A4600E02A46074980394A60F2
:10070000012180F82110002180F82010416B01B1F7
:1007100088472046BDE8F09F800002400804024060
:100720002DE9F05FC16B0A6801680B68046C4FF03B
:10073000040808FA04F8844D844E854FDFF814C28B
:10074000DFF81492DFF814A2DFF814B2DFF814E235
:1007500018EA020F65D05FEA437862D50A6892060C
:1007600003D40A6822F004020A60DFF8F0814FF433
:100770008062016808F1140813011402414524D96C
:10078000A9420DD0B1420FD0B9421AD0614515D05F
:10079000494515D0514501D1120312E0594501D107
:1007A00004220EE0714501D140220AE06D4D14355E
:1007B000A94206D06B4A2832914201D11A4600E084
:1007C00022466749091F0A6029E0A94213D0B142B5
:1007D00015D0B94220D061451BD049451BD05145A9
:1007E00002D14FF4800217E0414502D14FF0806200
:1007F00012E0594501D104220EE0714501D1402299
:100800000AE0584D1435A94206D0564A2832914282
:1008100001D11A4600E022464B4908394A60C16AB4
:1008200071E04FF0020808FA04F818EA020F70D0DD
:100830005FEA83786DD50A68920606D40A6822F0CA
:100840000A020A60012180F82110DFF810814FF4BC
:100850000072016808F1140813011402414524D9FB
:10086000A9420DD0B1420FD0B9421AD0614515D07E
:10087000494515D0514501D1120312E0594501D126
:1008800002220EE0714501D120220AE0354D1435D7
:10089000A94206D0334A2832914201D11A4600E0DB
:1008A00022462F49091F0A6029E0A94213D0B1420C
:1008B00015D0B94220D061451BD049451BD05145C8
:1008C00002D14FF4001217E0414502D14FF00072FF
:1008D00012E0594501D102220EE0714501D12022DA
:1008E0000AE0204D1435A94206D01E4A2832914212
:1008F00001D11A4600E02246134908394A60002116
:1009000080F82010816A00291CD0BDE8F05F0847FC
:10091000FFE70825A540154214D01A0712D50A682A
:1009200022F00E020A6090F84020C36B012101FA08
:1009300002F25A60816380F82110002180F82010B3
:10094000016BE0E7BDE8F09F080002401C00024098
:100950003000024044000240580002406C00024057
:10096000080402401C04024030B560B11A4B026812
:1009700014219A4209D2194B1344B3FBF1F18900B7
:10098000016417490AE0012030BD134B5B42134458
:10099000B3FBF1F1890001640F490839C1630221F9
:1009A00080F82110136843F6F0718B43F0E90114CD
:1009B0002143D0E902452C43214304692143446982
:1009C00021438469214319431160002141630122BD
:1009D00042770177084630BD08040240F8FFFDBFAA
:1009E0000000024070B5044690F820000025012860
:1009F0000CD0012084F8200094F821600020012E02
:100A000006D084F820000225284670BD022070BD63
:100A1000022684F82160A0632068066826F001069B
:100A200006602046FFF75CFCE06A00282068016849
:100A300002D041F00E0106E021F0040101602068BF
:100A4000016841F00A0101602068016841F001017C
:100A50000160D9E770B5044600F008F90546601C4E
:100A600002D004480078044400F000F9401BA04282
:100A7000FAD370BD340000202DE9F84FDFF8B8A19B
:100A800000220AF1040B144601274FF00F090BF165
:100A9000040E00BF0B6807FA04F52B40AB4274D17B
:100AA000DFF898C14E68A6EB0C0866452BD00DDC2C
:100AB000032E34D005DC36B3012E19D0022E2FD1EF
:100AC0001BE0112E16D0122E2AD119E0B8F5881F7E
:100AD00019D006DCB8F5803F15D0B8F5801F1FD1BE
:100AE00011E0B8F5001F0ED0B8F5041F18D10AE0C8
:100AF000CA6815E0CA68121D12E0CA6808320FE021
:100B0000CA680C320CE08A682AB1012A4FF0080248
:100B100003D0456104E0042202E0056100E0002208
:100B2000FF2B01D8064601E000F104064FEA8405D8
:100B300001D9A5F12005D6F800C009FA05F82CEA7C
:100B4000080C02FA05F54CEA050CC6F800C04D6821
:100B5000ED006AD53A4DAE6946F00106AE61AD6969
:100B600024F0030605F001050095364D06EB050C53
:100B7000DCF80850A6074FEA167809FA08F6B543DC
:100B8000314EB04202D100261AE04EE02F4EB04264
:100B900001D1012614E02E4EB04201D102260FE011
:100BA0002C4EB04201D103260AE02B4EB04201D1B7
:100BB000042605E0294EB04201D1052600E00626B4
:100BC00006FA08F62E43CCF808604D68DAF80060A3
:100BD000ED03554601D51E4300E09E432E604D684F
:100BE000AD0305D5DBF800601E43CBF8006004E0E0
:100BF000DBF800509D43CBF800504D68DEF80060F4
:100C0000ED02754601D51E4300E09E432E604D68FF
:100C1000AD0205D5084D0C352E681E432E6004E04C
:100C2000054E0C3635689D433560641C102CFFF46E
:100C300031AFBDE8F88F0000000401400000111042
:100C4000001002400000014000080140000C01407B
:100C5000001001400014014000180140001C014038
:100C60000AB1016170470904FBE700000148806890
:100C70007047000034000020024881680278114467
:100C80008160704734000020074810B5016841F0CA
:100C900010010160032000F073F8002000F006F856
:100CA00000F024F8002010BD0020024070B50D4D6A
:100CB00004464FF47A712878B1FBF0F00A490968CC
:100CC000B1FBF0F000F035FF48B9102C07D200223C
:100CD0002146501E00F034F800206C6070BD0120E9
:100CE00070BD000034000020400000200C4808B512
:100CF000816941F001018161816901F00101009187
:100D0000C16941F08051C161C06900F0805000901C
:100D10000448416821F0E06141F00071416008BD84
:100D2000001002400000014000F01F02012191402C
:100D30004009800000F1E020C0F800117047000079
:100D4000F0B40E4B1B680C46C3F30223C3F1070536
:100D5000042D00D90425191D072901D2002300E024
:100D6000DB1E012606FA05F1491E214099409E40EE
:100D7000761E16403143F0BC01F062B80CED00E085
:100D8000064900F0070208684FF6FF03184040EAE2
:100D90000220034A10430860704700000CED00E099
:100DA0000000FA052DE9F047DFF8548105460E46AC
:100DB000D8F8000000F00700B0420CD2D8F80010BC
:100DC00021F007013143C8F80010D8F8000000F006
:100DD0000700B0426FD128684A4C810712D54007FE
:100DE00003D5606840F4E06060602878000703D5B0
:100DF000606840F4605060606068A96820F0F000AE
:100E0000084360602878C00744D06868012816D07D
:100E10002168022816D0890700294CDA616821F080
:100E2000030101436160FFF721FF6968074641F252
:100E3000883001290ED00229814618D026E0216889
:100E40008903E9E78901E7E7FFF710FFC11B49457F
:100E500001D918E081466068C0F381000128F3D110
:100E600018E000BFFFF702FFC11B49450BD86068BF
:100E7000C0F381000228F5D10CE000BFFFF7F6FEB9
:100E8000C11B494502D90320BDE8F087606810F016
:100E90000C0FF3D1D8F80010404601F00701B14221
:100EA0000BD9016821F0070131430160006800F0AF
:100EB0000700B04201D00120E6E72878400705D5B9
:100EC0006068E96820F4E060084360602878000703
:100ED00006D56068296920F4605040EAC10060606E
:100EE00000F036F86168084AC1F30311515CC8404C
:100EF000064908600020FFF7D9FE0020C4E7000083
:100F000000200240001002402A4700084000002054
:100F10000448054900684968044AC1F30221515C4C
:100F2000C840704740000020001002403A470008C7
:100F30000448054900684968044AC1F3C221515C6C
:100F4000C840704740000020001002403A470008A7
:100F500012A185B00FC98DE80F0014A0144A0068D3
:100F600004905168134801F00C03042B10D0082B97
:100F70000ED1C1F38343C9031DF803000AD551689C
:100F800004AAC1F34041515C0A4A5043B0FBF1F05E
:100F900005B0704708494843FAE70000020304051A
:100FA000060708090A0B0C0D0E0F101001020000B5
:100FB0000010024000127A0000093D002DE9F84FB0
:100FC00004460078B94DC00748D06868C0F3810076
:100FD000012807D06868C0F38100022809D1686839
:100FE000C00306D52868800338D5606800286FD014
:100FF00034E06068B0F5803F0BD010B1B0F5A02FA1
:1010000011D0286820F480302860286820F48020DF
:1010100002E0286840F480302860606888B1FFF7FB
:1010200025FE064609E0286840F480202860F0E7A5
:10103000FFF71CFE801B642875D828688003F7D54D
:101040000CE0FFF713FE064605E000BFFFF70EFEBB
:10105000801B6428F0D828688003F7D42078944E49
:1010600080074FF001094FF000083BD5686810F089
:101070000C0F07D06868C0F38100022809D16868A6
:10108000C00306D42868800714D5206901281FD121
:1010900010E02069B0B1C6F80090FFF7E7FD074601
:1010A00005E000BFFFF7E2FDC01B0228C4D8286896
:1010B0008007F7D52868616920F0F80040EAC10090
:1010C00028600FE0C6F80080FFF7D0FD074606E075
:1010D000E9E000BFFFF7CAFDC01B022823D828683B
:1010E0008007F7D4207800072CD57248A169D9B1C0
:1010F000C0F80090FFF7BAFD074604E0FFF7B6FD21
:10110000C01B02280FD8686A8007F7D56A484FF4D9
:10111000FA510068B0FBF1F0009000BF0098411E4A
:101120000091FAD20EE080E0C0F80080FFF79EFD4B
:10113000074604E0FFF79AFDC01B022875D8686ACD
:101140008007F7D42078400760D5E8690027C00001
:1011500008D4E86940F08050E861E869012700F0B0
:101160008050009055480168C90513D40168834632
:1011700041F480710160FFF779FD824606E000BF0F
:10118000FFF774FDA0EB0A0064284ED8DBF80000DE
:10119000C005F5D5E06801280AD008B1052813D0AC
:1011A000286A20F001002862286A20F0040002E08A
:1011B000286A40F001002862E06841F2883B98B15B
:1011C000FFF754FD82460BE0286A40F004002862D5
:1011D000EEE700BFFFF74AFDA0EB0A0159455AD8D8
:1011E000286A8007F6D50CE0FFF740FD824605E04F
:1011F000FFF73CFDA0EB0A0159454CD8286A80074F
:10120000F6D41FB1E86920F08050E861E06988B346
:101210006968C1F38101022945D00228C6F86080BF
:1012200004D0FFF723FD044638E034E0FFF71EFD4D
:10123000074604E0FFF71AFDC01B02282BD82868D8
:101240008001F7D4206AB0F5803F05D16868A168B5
:1012500020F4003008436860D4E908010843696855
:1012600021F4741108436860C6F86090FFF7FEFC33
:10127000044606E015E000BFFFF7F8FC001B02285B
:1012800009D828688001F7D50BE000BFFFF7EEFC16
:10129000001B022802D90320BDE8F88F28688001CE
:1012A000F4D40020F8E70120F6E700000010024027
:1012B0000000424280044242400000200070004092
:1012C00010B5FEF78BFF10BD7047F0B5426E120EE1
:1012D00093090B70C2F383034B7002F003028A7010
:1012E000426E120CCA70B0F86420120A0A7190F8AB
:1012F00064204A71826E4FF6FF73120E03EA0212E7
:10130000CA80826ECB88C2F3074243EA1213CB80B5
:1013100002F00F020A72B0F86820C2F30722D30964
:101320004B72C2F380138B72C2F34013CB72C2F3C1
:1013300000130B7300264E73446C4FF400770123A7
:101340006CB1012C43D0026840F2FF519163816B74
:1013500041F08051816380F834300120F0BD920764
:10136000120D0A6190F868200C6944EA82020A6151
:10137000C26E0C69120E44EA92140C61C2F3C204EC
:101380000C7502F007024A75C26EC2F30742540997
:101390008C75C2F38204CC759207520F0A76B0F8AE
:1013A0006C20C2F307240A7E42EAD4120A760A6944
:1013B000521C42650D7EAD1CAA4042650D7A03FAAF
:1013C00005F585656D0A6A43C0E917271CE090F8AA
:1013D00068209206920A0A61C26E0C69120E44EAF3
:1013E00002220A61C26E0C69C2F3074214430C6107
:1013F000B0F86C20C2F307240A69521C4FEA82221B
:101400004265C0E916720766C4F3801201F8192F0D
:101410004FEA84624FEA52624A7010F86C2F4C789F
:1014200044EAD2144C7002F07F028A7042684FEA9C
:1014300012624FEAD214CC70C2F341140C71C2F3A1
:1014400082044C714FEA82724FEA12728A714268CA
:101450008C79C2F3074244EA92148C71C2F34014AF
:10146000CC710E7202F001024A728288C2F3072226
:101470004FEAD2148C72C2F38014CC72C2F34014BF
:101480000C73C2F300144C73C2F381048C7302F02A
:101490000302CA7300794FEA500008744B744FF08E
:1014A0000000F0BD426C0A60826C4A60C26C8A60C7
:1014B000026DCA60426D0A61826D4A61C26D8A61C5
:1014C000006EC8610020704770B50446B0F8500047
:1014D00000250104206800F07EFE18B1A16B0143D5
:1014E000A16304E00021206800F01AFD0546C5F361
:1014F000432070BD70B504460068416B4FF0010594
:10150000CA0540F23A3149D52A0282632068C26B8B
:101510008A43C263206B0007206B22D5800702D468
:10152000206B800609D5206800F086FE28B1A16BEB
:101530000143A1632046FFF7C7FE216840F2FF5038
:10154000886384F83450206BC00702D1206B800779
:1015500003D5204600F017FA70BD204600F017FAB8
:1015600070BD0006FCD5206B800609D5206800F010
:1015700063FE28B1A16B0143A1632046FFF7A4FEDF
:10158000206BC007ECD1206B8007E9D42068C16ACA
:1015900021F00801C16284F83450DEE7426B520446
:1015A00010D54FF480418163266A002506EB850142
:1015B000206800F0EAFC6D1C082DF7D3206A20306B
:1015C000206270BD426B120410D54FF4004181635C
:1015D000A66A0025206800F0C5FC46F825006D1CB1
:1015E000082DF7D3A06A2030A06270BD426B40F294
:1015F0003A231A42F9D0426B920703D5A26B42F00C
:101600000202A263426B120703D5A26B42F00802EA
:10161000A263426B920603D5A26B42F02002A26342
:10162000426BD20603D5A26B42F01002A263426B5A
:10163000920503D5A26B42F00802A26340F2FF724A
:1016400082632068C26B8A43C263206B000623D585
:10165000206C58B115494163206CFEF7C9FF002882
:10166000C3D0206CBDE8704000F06EBFE06B58B195
:101670000F494163E06BFEF7BBFF0028B5D0E06B7C
:10168000BDE8704000F03CBF0020A06384F83450F7
:101690002046FFF715FE70BD206B0007FBD584F8D0
:1016A00034502046FFF710FE70BD000049250008A9
:1016B0000125000870B5040004D094F8340000251A
:1016C00010B105E0012070BD2577204600F038F804
:1016D000032084F83400204600F008F8A563256351
:1016E000012084F83400002070BD0000FEB5002504
:1016F0000446C3200095CDE901502B462A462946D1
:10170000206800F019FC0D4E46F8A05F206800F03C
:1017100025FC012535600220FFF79CF9204600F0EA
:10172000AAFF20B9204600F033FF002805D084F836
:101730003450A16B0143A1630120FEBD0000304283
:1017400030B585B0002100910191029103910068AC
:101750001C49884233D11C48416941F48061416190
:10176000416901F480610491816941F01001816156
:10177000816901F010010491816941F020018161CA
:101780008069022400F0200004904FF48850CDE9D5
:1017900000040325694603950C48FFF76DF9042002
:1017A000CDE90004694603950948FFF765F9002271
:1017B00011463120FFF7C4FA3120FFF7B5FA05B022
:1017C00030BD0000008001400010024000100140C8
:1017D000001401402DE9F04F87B09A4617460E4697
:1017E0000446DDF840B0FFF741FA00903EB194F8AE
:1017F0003400012807D0A06B40F000500FE0A06B30
:1018000040F000600BE04FF00008C4F83880E06D55
:1018100007EB0A01814204D9A06B40F00070A0637D
:101820007DE0032084F834002068C0F82C80606CD0
:10183000012800D07F024FF40071206800F0DEFB29
:1018400040F2FF59012530B12268C2F83890A16BEF
:101850000143A16361E04FF0FF3001904FEA4A205D
:101860000290902003900220CDE90408069501A97A
:10187000206800F03FFBBAF1010F06D90220206377
:101880003946206800F030FC04E0256339462068C2
:1018900000F043FC0028D7D140F22A382068416B81
:1018A00011EA080F22D1406B000409D500272068F7
:1018B00000F058FB46F827007F1C082FF7D320368E
:1018C000BBF1000F05D0FFF7D1F90099411A594536
:1018D000E4D32168C1F83890A06B40F00040A063C9
:1018E00084F83450032007B0BDE8F08F416BC90580
:1018F00009D5BAF1010F06D9616C032903D000F0B4
:101900009BFC0028A0D12068416B090709D5C0F8CD
:101910003890A06B40F0080028E084F83450012093
:10192000E1E7416B890705D5C0F83890A06B40F01E
:1019300002001BE0416B89061AD5C0F83890A06BF5
:1019400040F0200012E000BF00F00CFB01C6BBF12C
:10195000000F05D0FFF78AF90099411A594507D3BE
:101960002168C1F83890A06B40F00040A063D4E734
:101970002068416B8902E7D42168C1F8389084F867
:1019800034500020AFE710B5FEF75EFC10BD10B577
:10199000FEF76CFC10BD00002DE9F04F87B09A46B1
:1019A00016460D460446FFF761F906903DB194F8DE
:1019B0003400012807D0A06B40F000500DE0A06B70
:1019C00040F0006009E00020A063E26D06EB0A0130
:1019D000914204D9A06B40F00070A06390E0032115
:1019E00084F8341021688146C862606C012800D0F8
:1019F00076024FF40071206800F000FB40F2FF58BF
:101A0000012730B12268C2F83880A16B0143A1637D
:101A100017E0BAF1010F06D9202020633146206873
:101A200000F024FC05E0102020633146206800F01F
:101A300036FC060008D02168C1F83880A06B30431E
:101A4000A06384F834705BE04FF0FF3000904FEA01
:101A50004A200190902002904846CDE90407CDF835
:101A60000C90B9466946206800F044FA40F21A3BEF
:101A700022E0406B40040AD55FF0000705EB8701C8
:101A8000206800F082FA7F1C082FF7D320351098C9
:101A900030B1FFF7EBF80699411A109881420BD349
:101AA0002168C1F83880A06B3043A06384F834907B
:101AB000032007B0BDE8F08F2068416B11EA0B0FDF
:101AC000D7D0416BC9050FD5BAF1010F0CD9616CA4
:101AD000032909D000F0B0FB30B12268C2F8388089
:101AE000A16B0143A16309E02068416B090709D597
:101AF000C0F83880A06B40F0080014E084F83490FF
:101B00000120D6E7416B890705D5C0F83880A06B66
:101B100040F0020007E0416BC0F83880C90604D5E8
:101B2000A06B40F01000A063E8E784F83490002038
:101B3000BFE710B5401EB0F1807F01D3012010BD7A
:101B40004FF0E02460610F21601700F079F9002068
:101B5000A06107202061002010BD30B590F83C2026
:101B6000012A20D0012280F83C20022380F83D3059
:101B700003685C6824F070045C6003685C680D684E
:101B80002C435C6003689C6824F080049C600368BC
:101B90009C6849680C439C6080F83D20002180F8D7
:101BA0003C10084630BD022030BD10B5040003D003
:101BB00094F83D0010B107E0012010BD002084F82A
:101BC0003C00204600F00CF8022084F83D00211D66
:101BD000206800F075FE012084F83D00002010BD53
:101BE00008B500680649884208D10648C16941F035
:101BF0001001C161C06900F01000009008BD000034
:101C00000010004000100240022180F83D100168E1
:101C10000A6842F001020A60012180F83D100020AC
:101C2000704770B5040004D094F83900002510B155
:101C300006E0012070BD84F83850204600F022F8FC
:101C4000242084F839002068C16821F40051C16063
:101C5000204600F07BFE2068016921F4904101617B
:101C60002068416921F02A0141612068C16841F47E
:101C70000051C160E563202084F8390084F83A00FF
:101C8000002070BD30B585B000240094019402940A
:101C9000039400681449884224D11448816941F4AE
:101CA00080418161816901F480410491816941F041
:101CB0000401816180690E4D00F0040004904FF42E
:101CC000007000900220019003200390694628468E
:101CD000FEF7D2FE2815CDE9000469462846029495
:101CE000FEF7CAFE05B030BD0038014000100240CA
:101CF000000801402DE9F843044690F839001F46DA
:101D000016460D46202850D1A5B19EB194F8380052
:101D100001284AD0012084F838004FF00008C4F8A8
:101D20003C80212084F83900FEF7A0FFA68481467C
:101D3000E68426E00120BDE8F883E08C401EE084C4
:101D4000A0684B46B0F5805F4FF000024FF0800175
:101D50002046009703D000F0B1FEE8B90DE000F096
:101D6000ADFEC8B928882168C0F308004860206922
:101D700008B16D1C05E0AD1C03E0216815F8010BEE
:101D80004860E08C0028D8D14B46002240212046F4
:101D9000009700F093FE08B10320CCE7202084F8E0
:101DA000390084F838800020C5E70220C3E7FEE749
:101DB00010B504490448FEF7AAFA0249491E087002
:101DC00010BD00002F000020BC4C000870B586B08C
:101DD000002418480094019402940394816941F00E
:101DE00020018161816901F020010491816941F044
:101DF00004018161816901F004010491816941F06C
:101E00001001816180690C4E00F010004FF4807564
:101E10000490002229463046FEF722FF012000955B
:101E2000CDE901040220039069463046FEF724FE06
:101E300006B070BD0010024000080140FEE7704788
:101E40000907090E002806DA00F00F0000F1E02073
:101E500080F8141D704700F1E02080F800147047EE
:101E60007047000070B5214C607800254FF4007673
:101E700001281AD12069C0B1A06900F50070A061E5
:101E8000A1691B4801F0E8FB206904F1080301285F
:101E900009D032461648616801F03CFE2069401EB8
:101EA0002061657070BDE269F4E7A0780128F9D17E
:101EB00020690028F6D0A06900F50070A061A16932
:101EC0000B4801F0C9FB2069084B012803F1080306
:101ED00009D032460648616801F01CFE2069401EA8
:101EE0002061A57070BDE269F4E7000000000020E9
:101EF0009C1100200A6842624A688262D1E902238A
:101F00001A43D1E904310B43C16A1A4321F0F701A6
:101F10001143C16200207047006800F00300704761
:101F200008B5084414300090006808BD0148FFF768
:101F3000E1BA00006800002070B50DF1100C1143EB
:101F40009CE870002343194329434268314347F614
:101F5000FF639A430A434260002070BD0321016081
:101F600000207047D0F8800070470A688260D1E98D
:101F700001231A43D1E903310B43C1681A436FF3BC
:101F80000B011143C160002070470968C0F8801040
:101F90000020704710B586B004463720CDE9001008
:101FA00040200290002003904FF480600490694626
:101FB0002046FFF7DAFF41F288323721204600F051
:101FC00087F906B010BD000010B504460A4886B077
:101FD00001432920CDE90010402002900020039009
:101FE0004FF48060049069462046FFF7BEFF20460C
:101FF00000F024FA06B010BD0000108010B586B0C5
:1020000004461020CDE900104020029000200390EB
:102010004FF48060049069462046FFF7A6FF41F226
:1020200088321021204600F053F906B010BD0000A0
:1020300030B585B000240546009401944FF48060CB
:102040000294CDE9034069462846FFF78EFF0B480E
:102050004FF4FA510068B0FBF1F041F28831484387
:10206000401E03D24FF0004005B030BD696B090639
:10207000F6D540F2FF50A8632046F5E74000002067
:1020800070B585B004464FF4D57000900820402606
:10209000CDE901060025C001CDE90350694620467F
:1020A000FFF763FF0F484FF4FA510068B0FBF1F0FF
:1020B00041F288314843401E02D24FF000450DE006
:1020C000616B11F0450FF6D0606B400702D5A66337
:1020D000042503E0606B400600D5A66305B02846E2
:1020E00070BD00004000002010B586B004461220EC
:1020F000CDE9001040200290002003904FF4806052
:10210000049069462046FFF730FF41F288321221E1
:10211000204600F0DDF806B010BD10B586B00446CC
:102120001120CDE9001040200290002003904FF4D0
:102130008060049069462046FFF717FF41F288321D
:102140001121204600F0C4F806B010BD10B586B0CD
:1021500004460720CDE90020402002900020039093
:102160004FF48060049069462046FFF7FEFE41F27E
:1021700088320721204600F0ABF806B010BD10B53C
:1021800086B0044600210220CDE90010C020CDE930
:1021900002014FF48060049069462046FFF7E5FE97
:1021A000204600F023F906B010BD10B586B00446F5
:1021B0000920CDE90010C0200290002003904FF4C8
:1021C0008060049069462046FFF7CFFE204600F06D
:1021D0000DF906B010BD10B586B004460D20CDE94E
:1021E000001040200290002003904FF48060049083
:1021F00069462046FFF7B9FE41F288320D2120469C
:1022000000F066F806B010BD30B585B00C46054646
:1022100000210320CDE900104020CDE9020100019A
:10222000049069462846FFF7A0FE2246032128466F
:1022300000F024F905B030BD10B586B00446002189
:102240000C20CDE900104020CDE9020100010490EE
:1022500069462046FFF789FE034A0C21204600F01C
:1022600037F806B010BD000000E1F50510B586B0E6
:1022700004461920CDE90010402002900020039070
:102280004FF48060049069462046FFF76EFE41F2ED
:1022900088321921204600F01BF806B010BD10B599
:1022A00086B004461820CDE900104020029000209E
:1022B00003904FF48060049069462046FFF755FE76
:1022C00041F288321821204600F002F806B010BD15
:1022D000444B10B51B684FF4FA54B3FBF4F353436B
:1022E0005B1E02D24FF0004010BD426B12F0450F52
:1022F000F6D0426B520703D504218163084610BD16
:10230000426BD20702D00121816303E00269D2B29D
:102310008A4201D0012010BD40F2FF5181630021AB
:10232000FFF7FEFD3049084201D1002010BD002812
:1023300002DA4FF0007010BD410001D5402010BD01
:10234000810001D5802010BDC10002D54FF48070FE
:1023500010BD010102D54FF4007010BD410102D53E
:102360004FF4806010BDC10102D54FF4006010BD74
:10237000010202D54FF4805010BD410202D54FF446
:10238000005010BD810202D54FF4804010BDC10243
:1023900002D54FF4004010BD410302D54FF4003088
:1023A00010BD810302D54FF4802010BDC10302D5BA
:1023B0004FF4002010BD010402D54FF4801010BD71
:1023C000410402D54FF4001010BD810402D54FF432
:1023D000800010BD000702D54FF4000010BD4FF47F
:1023E000803010BD4000002008E0FFFD12494FF48E
:1023F000FA520968B1FBF2F141F288325143491EA9
:1024000002D24FF000407047426B12F0450FF6D0F9
:10241000416B490703D50421816308467047416B2E
:10242000C90703D0012181630846704740F2FF517C
:102430008163002070470000400000200E494FF4E7
:10244000FA520968B1FBF2F141F288325143491E58
:1024500002D24FF000407047426B12F0450FF6D0A9
:10246000416B490703D5042181630846704740F258
:10247000FF51816300207047400000201F4B10B5C2
:102480001B684FF4FA54B3FBF4F341F2883463430E
:102490005B1E02D24FF0004010BD446B14F0450F9C
:1024A000F6D0436B5B0703D504218163084610BD5A
:1024B000436BDB0702D00121816303E00369DBB2D8
:1024C0008B4201D0012010BD40F2FF5181630021F9
:1024D000FFF726FD10F4604F04D0410406D54FF4F9
:1024E000005010BD000C1080002010BD000402D56B
:1024F0004FF4805010BD4FF4803010BD40000020DC
:1025000070B5446A0025E06B00B1E563206C0028DB
:1025100016D12046FEF7D8FFA563012184F83410B8
:10252000062801D005280BD12068FFF785FEA16B96
:102530000843A063A06B0028204602D0FEF7C0FE2F
:1025400070BDFEF7C1FE70BD70B5446A0025206CF9
:1025500000B12564E06B002816D12046FEF7B4FFD9
:10256000A563012184F83410062801D005280BD179
:102570002068FFF761FEA16B0843A063A06B0028F1
:10258000204602D0FEF79CFE70BDFEF79DFE70BD9A
:1025900010B590B004460120ADF838002068FFF770
:1025A000BBFC002864D0606C032842D02068FFF791
:1025B000E6FD00285AD100212068FFF7B1FC6067D2
:1025C00004212068FFF7ACFCA06708212068FFF712
:1025D000A7FCE0670C212068FFF7A2FCC4F880008C
:1025E000606C032825D00EA92068FFF70DFE002897
:1025F0003CD1606C03281CD0BDF838002065010474
:102600002068FFF7D2FD002830D100212068FFF7B5
:1026100087FC606604212068FFF782FCA066082121
:102620002068FFF77DFCE0660C212068FFF778FC4E
:10263000206704212068FFF773FC000DE06403A904
:102640002046FEF742FEB4F8500000230204206842
:10265000FFF77CFD002809D104F1100007C88DE8C0
:10266000070094E80F00FFF767FC002010B010BDD2
:102670004FF08060FAE72DE9F84300250446009505
:102680000068FFF7D5FC00281AD12068FFF7F8FC96
:102690004FF080784FF6FF76D8B14FF08057A564A1
:1026A0000098411C0091B0421AD000212068FFF729
:1026B00071FC20B900212068FFF786FC10B1384674
:1026C000BDE8F88300212068FFF72AFCC00FE7D09F
:1026D0001FE00127A7640098411C0091B04201D17E
:1026E0004046EDE700212068FFF754FC0028E7D1C1
:1026F0004FF080412068FFF767FC0028E0D10021FF
:102700002068FFF70DFCC10FE5D0400001D56764DC
:1027100000E065640020D3E710B5064C012020706E
:10272000FDF770FD18B9207820F0010020702078A6
:1027300010BD00004C00002010B5124888B01446AF
:102740000078C00702D0032008B010BDB9B101293C
:1027500005D0022908D003290CD00420F4E76846EC
:10276000FDF73EFD069809E06846FDF739FD07983C
:10277000208004E06846FDF733FD079820600020C4
:10278000E2E700004C0000202DE9F0411E4617460C
:1027900008460125094C0A4B32463946FDF744FDEF
:1027A00028B109E0641E02D20120BDE8F081FDF7E6
:1027B0001DFD0028F6D100252846F6E7A086010079
:1027C00000E1F50510B5064C01202070FDF70EFD67
:1027D00018B9207820F001002070207810BD00008A
:1027E0004C0000202DE9F0411E4617460846012501
:1027F000094C0A4B32463946FDF728FD28B109E05D
:10280000641E02D20120BDE8F081FDF7EFFC002834
:10281000F6D100252846F6E7A086010000E1F5057F
:102820007047FEF729BA30B58FB028216846FDF70A
:10283000A2FC14210AA8FDF79EFC01210804CDE9A1
:1028400000100024029402250491CDE907504FF4B2
:10285000E01009906846FEF7B1FB0F20CDE90A05AC
:102860004FF4A060CDE90C4068020E9002210AA846
:10287000FEF798FA0FB030BD0D48016841F0010134
:10288000016041680B4A1140416001680A4A1140E9
:102890000160016821F480210160416821F4FE019A
:1028A00041604FF41F0181600449C0030860704714
:1028B000001002400000FFF8FFFFF6FE08ED00E008
:1028C000F0B502681C4B1D4D1D4E1E4F1E4C4FF0A7
:1028D000804C984209D0A04207D0604505D0A8425C
:1028E00003D0B04201D0B84204D122F0700E4A6841
:1028F00042EA0E02984209D0A04207D0604505D0B6
:10290000A84203D0B04201D0B84203D122F44075AE
:10291000CA682A4322F080054A692A4302608A680D
:10292000C2620A688262984201D0A04201D109695C
:10293000016301214161F0BD002C01400004004011
:1029400000080040000C0040003401402DE9F04137
:10295000044600680169E26821F4405111430161B5
:102960002169A0680843616908432168CA6841F287
:102970000C639A430243CA6020684169A26921F44A
:102980004071114341614C492068642532268842D8
:102990003CD1FEF7CDFA00EBC00101EB00106168FD
:1029A0008900B0FBF1F7FEF7C3FA00EBC00101EBC1
:1029B00000106168B0468900B0FBF1F0B0FBF5F0A3
:1029C0006FF01801484307EB800106EB0110B0FBE4
:1029D000F5F000F0F006FEF7ABFA00EBC00101EBFA
:1029E000001061688900B0FBF1F0B0FBF5F006EB78
:1029F0000016FEF79DFA00EBC00101EB00106168C4
:102A00008900B0FBF1F7FEF793FA3BE0FEF780FA9E
:102A100000EBC00101EB001061688900B0FBF1F729
:102A2000FEF776FA00EBC00101EB00106168B046DA
:102A30008900B0FBF1F0B0FBF5F06FF018014843EE
:102A400007EB800106EB0110B0FBF5F000F0F0069B
:102A5000FEF75EFA00EBC00101EB0010616889002F
:102A6000B0FBF1F0B0FBF5F006EB0016FEF750FA04
:102A700000EBC00101EB001061688900B0FBF1F7C9
:102A8000FEF746FA00EBC00101EB00106168890017
:102A9000B0FBF1F0B0FBF5F06FF01801484307EB25
:102AA000800108EB0110B0FBF5F0216800F00F0089
:102AB00030448860BDE8F081003801402DE9F041E4
:102AC000984617460E460446069D1DE0681C1BD01E
:102AD0002DB1FEF7CBF8A0EB0800A84214D920686E
:102AE000C16821F4D071C1602068416921F0010101
:102AF0004161202084F8390084F83A00002084F8ED
:102B000038000320BDE8F0812068006836EA000044
:102B100004D00020B842D9D00020F3E70120F9E723
:102B2000FEE700000FB4054B10B503A9044A029854
:102B300000F018F810BC5DF814FB0000D93F000845
:102B40005000002002E008C8121F08C1002AFAD174
:102B500070477047002001E001C1121F002AFBD11D
:102B6000704700002DE9FF4F8BB09A460F4605468F
:102B7000002606E025280BD052460D9990476D1C83
:102B8000761C28780028F5D10FB03046BDE8F08FCC
:102B90000024A0460122604900E0044315F8013FEB
:102BA000203B02FA03F00842F7D128782E2817D1EB
:102BB00015F8010F44F004042A280ED06FF02F02FC
:102BC0002878A0F1300109290AD808EB880102EB26
:102BD000410100EB01086D1CF2E757F8048B6D1CF6
:102BE000287869283ED006DC0028CDD063280BD099
:102BF000642804D136E0732810D075284BD0524693
:102C00000D999047761C85E017F8040B8DF80000AD
:102C100000208DF80100E946012003E057F8049BED
:102C20004FF0FF3061074FF0000401D40AE0641C4C
:102C300044450DDA8442FADB19F804100029F6D174
:102C400006E0641C8442FCDB19F804100029F8D16A
:102C5000264404E019F8010B52460D999047641E72
:102C6000F8D257E001CF4FF00A0B002802DA4042B9
:102C70002D2102E0210504D52B218DF824100121FE
:102C800003E0E10705D02021F7E70DF120090891C5
:102C90000CE00021F9E701CF4FF00A0BF9E75946A4
:102CA000FDF774FA01F1300209F8012D0028F6D180
:102CB000ADEB090000F1200B600701D44FF00108D3
:102CC000D84502DDA8EB0B0000E000208046002480
:102CD00006E009A85246005D0D999047641C761CD9
:102CE00008988442F5DB04E0302052460D99904765
:102CF000761CB8F10001A8F10108F5DC05E019F82F
:102D0000010B52460D999047761CBBF10001ABF1C7
:102D1000010BF4DC6D1C34E70928010010B50446F2
:102D200000F5805000220271521EC262204601F05E
:102D3000CBFB08B1032010BDB4F8FE01A0F52A4179
:102D4000553901D0022010BD94F83600B4F8371080
:102D500040EA01210848B0EB012F08D094F8521046
:102D6000B4F8532041EA0221B0EB012F01D1002039
:102D700010BD012010BD00000046415400E0401C81
:102D800002780AB18A42FAD1D0B27047F0B5002277
:102D9000174B144600F5805002EB420653F82650BC
:102DA0006DB10768BD420BD103EB860587686E687D
:102DB000BE4205D12D89C688B54204D000E0012469
:102DC000521C022AE8D3022A01D079B904E05CB986
:102DD000022909D01220F0BD02EB420003EB800073
:102DE0004089B0F5807F01D00020F0BD1020F0BDFB
:102DF0000C26002030B50021064A0C4601EB4103A9
:102E000052F82350854201D142F82340491C02293F
:102E1000F4D330BD0C26002000F58050426A0068D3
:102E200000F58050438980784343B1FBF3F0121DD5
:102E300002CA19B1884203D3401AF8E7002070474C
:102E400011680844704700F58050891E4269921E3F
:102E50008A4201D800207047826A807801FB0020F6
:102E600070472DE9F04180460F0000F5805407D0EF
:102E7000404601F0FDF8022809D20120BDE8F081AA
:102E8000E66816B16069B04207D8012605E0411C2A
:102E9000F4D061698142F1D83E46354660696D1CC7
:102EA000A84202D80225022E0AD32946404601F044
:102EB000DFF838B1411CE1D00128DFD0B542EDD1B7
:102EC0000020DBE76FF070422946404601F018FB16
:102ED00030B957B12A463946404601F011FB20B1BE
:102EE00001280DD001252846C8E7E5602069411C6E
:102EF000F9D0401E2061607940F001006071F2E776
:102F00004FF0FF35EFE700002DE9F84F88460D68D8
:102F100000E06D1C29782F29FBD05C29F9D000F541
:102F2000805A0024DAF820702646A85D761C2028F6
:102F300017D32F2815D05C2813D0FF2C31D20121B4
:102F400000F0B0FE5FEA00092BD0B9F1800F04D287
:102F5000014668A0FFF712FF18BB27F81490641C05
:102F6000E3E7AA19C8F80020202801D2042516E0BA
:102F7000002514E007EB440030F8020C20280DD0A7
:102F80002E280BD06CB1002027F814000B22202132
:102F9000DAF8180001F091FA002606E0641E002C11
:102FA000E8D10620BDE8F88F761C37F816002028F7
:102FB000FAD02E28F8D01EB145F0030500E0641EBB
:102FC0002CB107EB440030F8020C2E28F7D100207A
:102FD00081464FF0080B009037F8160006F1010605
:102FE0005FEA000824D0B8F1200F04D0B8F12E0F0A
:102FF00004D1A64202D045F00305EDE700985845FC
:1030000001D2A6421AD1BBF10B0F0FD0A64201D0BC
:1030100045F003050CD84FF0080000904FEA896096
:1030200026464FF00B0B4FEA1069D5E745F0030534
:10303000DAF818000178E52938D039E04046B8F1CF
:10304000800F10D3002100F02DFE5FEA000805D0AC
:103050002B4901EB080010F8800C804645F0020572
:10306000B8F1000F04D0014626A0FFF787FE20B17B
:103070004FF05F0845F003050FE0A8F14100192863
:1030800002D849F0020908E0A8F16100192804D823
:10309000413049F001091FFA80F8DAF81820009948
:1030A00002F801800098401C009095E7052101700E
:1030B000BBF1080F03D14FEA89604FEA1069C9F3E9
:1030C0008100032803D06FEA0901890701D145F087
:1030D0000205A90709D409F00301012901D145F02E
:1030E0001005012801D145F00805DAF81800C5726D
:1030F000002057E7222A3A3C3E3F7C7F0000000038
:10310000424700082B2C3B3D5B5D00002DE9F14F51
:1031100082B00021029800F007FA00287AD1029DBF
:10312000FF2005F580554FF6FF7A00908146A5F8FF
:1031300024A02969286801F0C7F906000DD16C693F
:10314000207848B1E17AE52801F03F016DD00A0707
:1031500004D50F2969D107E0042671E00F2903D0B7
:10316000B9F1000F4AD04FE0296A89B3420606D56B
:10317000627B009220F04000EA888146AA8448459C
:1031800035D1627B0098824231D101912078A046EE
:1031900020F04000401E00EB80010027DFF8A8B0BF
:1031A00001EBC006012400BF1BF8071001EB08006B
:1031B000008874B100F092FD0446FF2E17D20198EA
:1031C00030F81600761C00F089FDA0420FD102E015
:1031D0002FE050450BD17F1C0D2FE5D398F8000050
:1031E000400608D53CB1019830F8160018B1FF2010
:1031F00000F0FF091DE0A9F10100F9E7204601F008
:1032000049FA009988421BD0A869C17AC9070CD134
:103210000A2102E015E0491E06D314F8012B10F82C
:10322000013BD21AF7D000E052B14FF0FF09A5F8E8
:1032300024A00021029800F009F806003FF479AFBD
:103240003046BDE8FE8F0000C24700082DE9F0417E
:1032500000F580540F46E688761C3004000C38D008
:10326000216991B3206800F5805253895B09B6FB50
:10327000F3F503FB1563002B67D1491C2161E1685D
:1032800021B3538992785B09B6FBF3F3521E1342C4
:103290005BD100F0EDFE054601281FD9681C39D02E
:1032A000206841F214010958A94248D86FB1E16879
:1032B000FFF7D7FD05000FD0012D0FD0681C29D0D6
:1032C000206801F0F4F928BB0AE002E01089B0425E
:1032D0003BD80420BDE8F0810720FBE70220F9E796
:1032E00041F20A0120680A5A002101F0E6F8294655
:1032F0002068FFF7A8FD2168002701F580514FF0F5
:103300000108C8620FE000BF80F80480206801F067
:10331000CEF908B10120DDE7206800F58050C16AD0
:10332000491C7F1CC162206800F580508178B94239
:10333000EAD8216801F58051C96AC91BC162E560FC
:1033400029462068FFF77FFD2061E68041F20A01EF
:103350002068095A4909B6FBF1F201FB126100EB42
:10336000411060610020B5E72DE9F14F84B00C22D7
:10337000049C684604F58054A769266A394601F022
:1033800093F89DF80B00C00718D00020F8720125B3
:1033900020622B4632466946384600F029FE0498E2
:1033A000FFF7B4FE10B96D1C642DF2D3642D0BD061
:1033B00004280AD19DF80B00F87226629DF80B00D4
:1033C00080070FD5002004E0072005B0BDE8F08F8E
:1033D000401C36F810100029FAD10D211930B0FB2D
:1033E000F1F600E00126049D0021284600F09CF83B
:1033F000A8B94FF0000805F580573969386801F021
:1034000063F860B978690078E5280BD050B14FF0C7
:10341000000801212846FFF719FF0028EDD00428F5
:1034200012D012E008F101083046B045F1D1461E35
:103430005FEA060A59D0E1880498A1EB0A0100F07E
:1034400073F8050003D06BE00720054668E0A0692B
:1034500001F020F903902169206801F035F805009A
:103460005ED16169D4F82090039848730F20C87228
:103470000020087388760AF0FF0BC876ABF10100D4
:1034800000EB800202EBC00500234FF6FF7E254EC5
:103490004A1C01E0604503D039F81500F4466D1C64
:1034A000F75CC85516F80380070A08F8027000B9DF
:1034B00060465B1C0D2BEDD3704502D039F815002A
:1034C00008B94BF0400B81F800B02168012001F5EC
:1034D0008051087100210498FFF7B8FE05001FD144
:1034E000AAF101005FEA000AB5D12169206800F065
:1034F000EBFF050014D120220021606900F0DDFF00
:10350000D4E905010B2200F0CFFFA0696169C07A00
:1035100000F0180008732168012001F5805108713E
:10352000284652E7C247000870B500F580540D46A2
:10353000E180A368012B42D0206800F580504169EA
:1035400099423CD923B90178032906D1436A23B1B2
:10355000418980784E09464312E00189A9422ED95B
:10356000406A13E000F084FD0346401C25D0022B86
:1035700025D3206800F58050406998421FD9AD1BC3
:103580002068B5421946EDD2FFF75DFCE360B0B1AB
:1035900021680A4601F580514B895B09B5FBF3F3BD
:1035A0001844206148894009B5FBF0F100FB115037
:1035B00002EB40106061002070BD012070BD022050
:1035C00070BD0000084910B50B5C002253B9012200
:1035D0000A540A1801EB8000127A4068016810460C
:1035E00088470246104610BD2428002030B4054C00
:1035F000231804EB80001B7A406804691846A4462F
:1036000030BC60472428002030B4054D2C1805EB51
:103610008000247A406885682046AC4630BC60470C
:1036200024280020044A111802EB8000097A40681F
:1036300042680846104700002428002030B4054D99
:103640002C1805EB8000247A4068C5682046AC46FB
:1036500030BC6047242800202DE9FC5F0D468346DE
:1036600001F04EF85FEA00096FD10BF58054E07964
:1036700000286AD1606A01274FF0020A00287AD038
:10368000691C32D0E068A84200D20546A560002D32
:103690005AD05846691EFFF7BFFB60612268014699
:1036A0001046FFF7D0FB00287ED023686D1E03F57F
:1036B00080535E899A78B5FBF6F1521E11400D18C1
:1036C000A068B0FBF6F106FB11000028E0D0A2696B
:1036D000AA42DDD0A07940063FD55878012359464B
:1036E000FFF7ACFF00287AD133E002C800912169CE
:1036F0008346022501B30026AD1C01918846761C45
:10370000206800F0B5FC014601284DD9481C66D060
:1037100008F101008142F1D00098854206D8CBF82B
:1037200000600BF10400019A04C08346206800F594
:10373000805040698842DED8606A05600098854202
:1037400004D80020CBF80000B7E098E04FF0110952
:10375000B3E0A07920F04000A0712068012300F5BB
:1037600080502A4640785946FFF74EFF002836D150
:10377000A561A2E0FFE7E068A84203D2A17989072A
:1037800000D405464FF00008A068C4F808802DB3A7
:1037900021680A4601F580518E7849894E4378B1F7
:1037A000691EB1FBF6F100E066E0401EB0FBF6F3E7
:1037B000994205D3711E8843A0602D1A61690CE0FF
:1037C000216949B900211046FFF74BFB014601284A
:1037D00052D0481C63D021616161E9B935E05EE0F7
:1037E000A0798007206805D5FFF73BFB010004D1D5
:1037F000354613E000F03CFC0146481C4FD001293F
:103800003AD9206800F580504069884234D9616116
:10381000A068AD1B3044A060B542E1D8A06841F279
:103820000A022844A0602068125AB5FBF2F302FB9A
:10383000135252B1FFF707FBF0B1216801F5805137
:103840004989B5FBF1F101EB00082068A16800F59A
:1038500080504289B1FBF2F302FB131121B3A2693C
:10386000424521D0A17949060FD540780123594618
:10387000FFF7E4FE98B904E084F807A00220BDE851
:10388000FC9FA07920F04000A0712068012300F582
:103890008050424640785946FFF7B6FE10B1E771B6
:1038A0000120ECE7C4F81880D4E90201884204D969
:1038B000E060A07940F02000A0714846DFE70000FA
:1038C0002DE9F74181B0904602980090684600F0DB
:1038D00044FC040003D50B2004B0BDE8F081104E79
:1038E000002756F824502DB12846FFF783FA05F536
:1038F00080552F700198002803D000BF4FF48051ED
:103900000F5446F8240002D0B8F1010F01D0002076
:10391000E2E7002202A901A800F0F2F9DCE70000CA
:10392000480000202DE9F74FADF5825D98B100F514
:1039300080564FF0000802F01F0741F2440127F0C3
:10394000010269440DF58050C6F8008000F0D8F9F6
:10395000040006D0D8E0092013B00DF5805DBDE865
:10396000F08F41F228010DF580506944816168496A
:103970000162EB46416C584600F0F8FA04000DF580
:10398000805045690BD11DB1780803D0012102E0B8
:10399000062404E000215846FFF7F8F9044617F022
:1039A0001C0F75D04FF0010AECB1042C14D158490A
:1039B0000020183902E0401C022805D200EB40022A
:1039C00051F82220002AF6D1022803D05846FFF7EA
:1039D000CBFC00E0122004460DF5805047F00807AC
:1039E000456954B190E0E87A10F0110F01D0072436
:1039F0008AE0780701D5082486E0380756D500F01C
:103A0000AAFBA873010AE973010C2974000E6874FB
:103A100085F80B8085F81C8085F81D8085F81E8050
:103A20000DF5805085F81F800068294600F000FCE5
:103A300081460021284600F025FE0DF58050B9F1A1
:103A4000000F006800F5805080F804A02CD00DF520
:103A500080504946006800F58050D0F82CA00DF544
:103A60008050006800F0DBFD04004DD10DF5805062
:103A7000A9F10101006800F58050C1600DF580508A
:103A80005146006800F020FD04000BD03CE0FFE749
:103A9000D4BBE87AC10601D5042435E0B90701D5C5
:103AA000C007A4D1380701D547F020070DF5805095
:103AB000006800F58050C06AC6E90705780801D0A3
:103AC000012100E00021584600F066FBB062E8B139
:103AD000B7710DF5805086F8078047460068294683
:103AE00000F0A6FB3061287FD5F81D1040EA0120C8
:103AF000C6E90270B7610DF58050776200683060EA
:103B000000F58050C088B080204625E70224FBE7FE
:103B1000242600202DE9F04F884687B000219946E1
:103B200015468346196000F0EBFD002812D10BF515
:103B30008054E07900280DD1A079C00709D0D4E9DC
:103B40000201081A01274FF0020A854200D90546F2
:103B5000A2E0072007B0BDE8F08F2068A16800F55B
:103B600080535E89B1FBF6F206FB1212002A73D174
:103B7000B1FBF6F29B785B1E1A4012F0FF0610D1E3
:103B800029B1626A2AB15846FFF746F904E0206974
:103B900002E0616900F06CFA02281FD3411C55D085
:103BA000606161692068FFF74EF9B8B13044009058
:103BB000206800F580504189B5FBF1F1039151B3C4
:103BC000721881788A4201D9891B03914078414655
:103BD000039B009AFFF718FDC0BB03E084F807A021
:103BE0000220B7E7A07940060ED5A1690098081A0F
:103BF0000399884208D2216801F580514A895946C3
:103C000000FB028000F050FC206800F580504689DF
:103C10000398464336E0A26900998A421AD0A179F6
:103C2000490609D5407801235946FFF707FD68B9D1
:103C3000A07920F04000A0712068012300F5805099
:103C400059464078009AFFF7DFFC18B1E771012070
:103C500080E701E00098A0612068A16800F580502D
:103C60004089B1FBF0F200FB1212861AAE4200D975
:103C70002E46B1FBF0F200FB121159443246404689
:103C800000F012FCA068B0443044A060D9F80000F5
:103C90008119AD1BC9F80010002D7FF45EAF002024
:103CA00058E70000802804D30B4A51B1FF2801D9FE
:103CB0000020704702EB4000A0F58050B0F8000FE4
:103CC000704732F81130834203D0491C89B28029F1
:103CD000F7D38031C8B27047FC4700080021064B7B
:103CE00000E0491C33F81120002A04D08242F8D1A8
:103CF000024830F811007047FC480008DC4A000810
:103D00002DE9FF5F4FF0000B0546C0F800B01746E5
:103D1000084600F022FA060003D50B2004B0BDE8E7
:103D2000F09F8F4850F826409CB12C6004F58055D8
:103D3000287820B16878FFF775FCC1070BD085F8AB
:103D400000B0F0B26870FFF73DFCC10708D0032057
:103D5000E4E70C20E2E70FB1400704D40020DDE7E0
:103D60001FB1400701D50A20D8E741F20A016218C5
:103D700068780221FFF73AFC78BB6889B0F5007FCC
:103D800034D3B0F5805F31D8002631462046FEF7A7
:103D9000C5FF012826D100204FEA0D0204EB0011D7
:103DA00091F8C23101F5DF712BB10B7AD1F809100E
:103DB00043EA012100E0002142F82010401C0428C1
:103DC000ECD300274FEA020858F8276036B1314695
:103DD0002046FEF7A3FF10B90AE007E002207F1C8F
:103DE000042FF1D3032801D0F0BB01E0012095E7B7
:103DF000B4F80B00B5F80AC060455FD1E18A29B973
:103E000094F82400D4F8251040EA0121A961207C0F
:103E10008A46E870012801D002284FD100FB01F941
:103E2000607BA87000B3411E084247D1B4F811105E
:103E30004FEA5C12B1FBF2F302FB131329819BB929
:103E4000B4F813702FB994F82030D4F8217043EAF5
:103E50000727E38943B1B1FBF2F803EB09024244BF
:103E600097422BD3BF1A00E028E0B7FBF0F028B34D
:103E7000012740F6F678404500D302274FF6F67842
:103E8000404500D30327801C3244AA623344686152
:103E9000C5E90763032F13D081B103EB0901696200
:103EA000022F18D000F0010100EB400001EB5000A0
:103EB000401E6044B0FBFCF151450ED90D202DE7AA
:103EC0000029FBD194F82C10D4F82D20800041EA71
:103ED00002216962ECE74000EAE74FF0FF30286119
:103EE000E86080206871032F2ED1208E01282BD10D
:103EF0002046711C00F0E8FA30BB85F805B0B4F834
:103F0000FE01A0F52A4155391ED12078D4F80110C0
:103F100040EA01201349884216D194F8E401D4F80C
:103F2000E51140EA0120104988420DD194F8E801DA
:103F3000D4F8E91140EA0120286194F8EC01D4F8A2
:103F4000ED1140EA0120E86005492F70091F08883B
:103F5000401C0880E8802046FEF74CFFFEE600008B
:103F600048000020525261417272416173B50546AA
:103F7000019801782F2901D05C2901D1401C0190C2
:103F800005F580540026A66001980078202805D207
:103F900000212846FFF7C8FA66617CBD01A92846C2
:103FA000FEF7B2FF0028F8D12846FFF7AFF8A16965
:103FB000C97A28B10428F0D14907EED405207CBD88
:103FC0004907FCD46169C87AC006F7D5206800F0BB
:103FD0002FF9A060E2E7000013B5642301226946CF
:103FE0000248FDF787FE00981CBD00002C01002050
:103FF0007CB516461C4605460B2200F055FA052CEA
:1040000011D91A4A0CE00021B61C2346044663F37A
:104010005F044008E30300D55440491C1029F4D341
:1040200030880028EFD107214FEA0D0204F00F007D
:104030003030392800D9C01D5054491E2409F5D10B
:104040007E205054002000E0401C884202D22B5CAD
:10405000202BF9D1082902D2535C491C00E020230F
:104060002B54401C0828F5D37CBD00002110010012
:104070002DE9F0470D46074602290DD307F5805478
:104080006069A84208D920784FF0FF36012807D090
:10409000022832D0032844D001263046BDE8F087FC
:1040A000618905EB5508B8FBF1F0216A01443846F7
:1040B00000F00AFA0028F0D16189B8FBF1F201FBA7
:1040C000128008F1010817F80090B8FBF1F0216A9E
:1040D0000144384600F0F8F90028DED16189B8FBC8
:1040E000F1F201FB1280395C49EA0120E90701D0B5
:1040F0000609D2E7C0F30B06CFE76089216A4008C2
:10410000B5FBF0F00144384600F0DEF90028C4D1D8
:1041100061896800B0FBF1F201FB120038440688A7
:10412000BBE76089216A8008B5FBF0F0014438469E
:1041300000F0CAF90028B0D16189A800B0FBF1F203
:1041400001FB120038440178D0F8010041EA002058
:1041500020F07046A1E70020704710B504464FF0EC
:10416000FF302268002A13D0114600E0491C0B786A
:10417000202B0ED33A2BF9D112F8013B303B0A2BFE
:1041800006D28A4204D1002B02D1491C1846216074
:1041900010BD002010BD0000F0B500F5805323488D
:1041A0001C68002202EB420550F82560A64209D1A6
:1041B00000EB85059F686E68BE4203D12D89DE88BD
:1041C000B54202D0521C022AECD3022A18D1002296
:1041D00002E0521C022A05D202EB420550F825509B
:1041E000002DF6D1022A13D002EB420540F82540FB
:1041F00000EB85049E686660DB8823810023638171
:10420000002902EB420100EB8101498902D019B17A
:104210000020F0BD491C01E04FF4807102EB420325
:1042200000EB83004181501CF0BD00000C260020F3
:10423000024602F58052488B1278032A02D1898AFD
:1042400040EA0140704700001CB5FCF71DFDFEF779
:10425000EAFAFDF7BBFD6948416941F0020141619D
:104260004069002200F00200009011463A20FCF75D
:1042700067FD3A20FCF758FD624861490024C0E917
:1042800000148460C46003210461C0E90541FDF7A6
:104290008FFD5C485C49C43001604FF4E131C0E9F6
:1042A00001140C21C460C0E904418461C461FDF7BC
:1042B000B8FC5449009414395448019408600846E5
:1042C000FCF791F80420CDE900044E48002269462D
:1042D0001438FCF742F84B48009484304C49019460
:1042E000C0E900144FF44C71C0E902418461FDF74C
:1042F0005CFC2020CDE90004424869468430FDF78B
:104300002CFC40488430FDF77FFC012241A142484B
:10431000FFF7D6FA414CE070E07810B940A0FEF704
:1043200001FC3E49012220314148FFF7FBFAE070D1
:10433000E078012500284AD13EA0FEF7F3FB414872
:10434000C0681038E0601020A061A1693848FFF70C
:1043500083F9E06805EB50202061E068E168400ADD
:10436000404201EB4020E061206960612B4936A0AA
:104370002031FEF7D7FBE16837A0FEF7D3FBE169F8
:104380003CA0FEF7CFFB21693EA0FEF7CBFB2D49F9
:10439000224B2C316E020833324625486160FFF70C
:1043A000B9FB2069401E2061A06900F50070A06182
:1043B000A1691F48FFF750F9184B3A4908333246B4
:1043C0001B486160FFF7A6FB2069401E2061257035
:1043D0000820C30100901B4A0A482C3200211438DF
:1043E000FCF75CF82078012805D006480021143835
:1043F000FCF7CAF8F6E7FDF735FDF3E700100240D9
:104400000080014068000020003801400074004036
:1044100000100040000000006C010020000000209F
:104420004D4F55544E205344204F4B0D0A00000071
:104430009C1100204F50454E2046494C45204F4B83
:104440000D0A00009C21002046696C65206E616D9C
:10445000653A2025730D0A0053697A65206F66203E
:1044600066696C653A2025642020427974650D0ADE
:1044700000000000523A2025642020427974650D26
:104480000A0000004E756D626572206F6620426CF6
:104490006F636B3A2025642020426C6F636B0D0ABA
:1044A0000D0A0000C823002004E000BF11F8013B02
:1044B00000F8013B521EF9D27047C9B201E000F882
:1044C000011B521EFBD270472DE9F04100F58054CC
:1044D0000746E06A0E460025B0420ED0384600F08E
:1044E000E6F8050009D16078012332463946FFF726
:1044F0008BF808B16E1E0125E6622846BDE8F08102
:104500002DE9F04717460D460646022904D306F565
:1045100080546069A84202D80220BDE8F087217863
:1045200007F0FF094FF0010A012924D002295DD0CC
:104530000329F1D16089216A8008B5FBF0F00144BC
:104540003046FFF7C1FF0028E7D16289A900B1FB1F
:10455000F2F302FB13118A194FF07043D2F80110E5
:1045600003EA0121394311700B0A53700B0C93704D
:10457000090ED17050E0618905EB5508B8FBF1F0E8
:10458000216A01443046FFF79FFF0028C5D16189A9
:10459000B8FBF1F201FB1280304408F10108E90791
:1045A00003D0017869F31F1100E03946017084F8E7
:1045B00004A06189B8FBF1F0216A01443046FFF79D
:1045C00083FF0028A9D16289B8FBF2F302FB1381B3
:1045D0003144EA0702D0C7F3071205E00A78C7F3AF
:1045E000032302F0F0021A430A7015E06089216A81
:1045F0004008B5FBF0F001443046FFF765FF0028A6
:104600008BD162896900B1FBF2F302FB13113144D3
:104610003A0A81F800904A7084F804A07DE72DE9F9
:10462000F0410F468046022918D308F58055686985
:10463000B84213D900261FE039464046FFF718FD5F
:1046400004001CD0012C09D0601C09D0002239467E
:104650004046FFF755FF060011D103E002260EE0A9
:1046600001260CE02869411C05D0401C28616879AE
:1046700040F00100687127466869B842DCD83046CE
:10468000BDE8F08181760A0AC2760A0C0275090E2D
:1046900041757047014600200B22430803EBC01010
:1046A00011F8013B521E1844C0B2F6D170472DE9F3
:1046B000F04100F58054804620790027E8B1E56A92
:1046C000607801232A464146FEF7B8FF08B101276A
:1046D00013E000202071206AA169281A88420CD2B8
:1046E000E67808E0A0690123054460782A4641463F
:1046F000FEF7A4FF761E022EF4D23846BDE8F08104
:1047000010B580B100F58050016861B101F58051AC
:104710000A7842B1CA888088824204D14878FEF77C
:1047200081FFC00700D0092010BD0000000000007C
:10473000000001020304060708090000000001024E
:104740000304809A90B68EB78F80D2D3D4D8D7DEA8
:104750008E8F909292E299E3EAEB59999A9D9C9DF3
:104760009E9FB5D6E0E9A5A5A6A7A8A9AAABAC21AE
:10477000AEAFB0B1B2B3B4B5B6B7B8B9BABBBCBDE1
:10478000BEBFC0C1C2C3C4C5C7C7C8C9CACBCCCDD0
:10479000CECFD0D1D2D3D4D5D6D7D8D9DADBDCDDC1
:1047A000DEDFE0E1E2E3E5E5E6E7E7E9EAEBEDEDB0
:1047B000EEEFF0F1F2F3F4F5F6F7F8F9FAFBFCFDA1
:1047C000FEFF01030507090E10121416181C1E0027
:1047D00000040002000180004000200010000800DA
:1047E00004000200000000800040002000100008CB
:1047F000004000200010000800040002C700FC0078
:10480000E900E200E400E000E500E700EA00EB0078
:10481000E800EF00EE00EC00C400C500C900E600AF
:10482000C600F400F600F200FB00F900FF00D6001D
:10483000DC00F800A300D800D7009201E100ED00F1
:10484000F300FA00F100D100AA00BA00BF00AE00E8
:10485000AC00BD00BC00A100AB00BB0091259225BF
:10486000932502252425C100C200C000A9006325AC
:10487000512557255D25A200A500102514253425B6
:104880002C251C2500253C25E300C3005A25542572
:1048900069256625602550256C25A400F000D00010
:1048A000CA00CB00C8003101CD00CE00CF001825D2
:1048B0000C2588258425A600CC008025D300DF00A8
:1048C000D400D200F500D500B500FE00DE00DA000D
:1048D000DB00D900FD00DD00AF00B400AD00B10089
:1048E0001720BE00B600A700F700B800B000A8006F
:1048F000B700B900B300B200A025A00061006200BB
:1049000063006400650066006700680069006A0073
:104910006B006C006D006E006F0070007100720023
:1049200073007400750076007700780079007A00D3
:10493000A100A200A300A500AC00AF00E000E100D0
:10494000E200E300E400E500E600E700E800E9003B
:10495000EA00EB00EC00ED00EE00EF00F000F100EB
:10496000F200F300F400F500F600F800F900FA0098
:10497000FB00FC00FD00FE00FF000101030105013A
:10498000070109010B010D010F01110113011501AF
:10499000170119011B011D011F012101230125011F
:1049A000270129012B012D012F013101330135018F
:1049B00037013A013C013E014001420144014601F8
:1049C00048014B014D014F01510153015501570160
:1049D00059015B015D015F016101630165016701CF
:1049E00069016B016D016F0171017301750177013F
:1049F0007A017C017E019201B103B203B303B403D7
:104A0000B503B603B703B803B903BA03BB03BC03CA
:104A1000BD03BE03BF03C003C103C303C403C50377
:104A2000C603C703C803C903CA03300431043204F0
:104A300033043404350436043704380439043A04A2
:104A40003B043C043D043E043F0440044104420452
:104A500043044404450446044704480449044A0402
:104A60004B044C044D044E044F04510452045304AF
:104A70005404550456045704580459045A045B045A
:104A80005C045E045F047021712172217321742122
:104A9000752176217721782179217A217B217C214A
:104AA0007D217E217F2141FF42FF43FF44FF45FFDF
:104AB00046FF47FF48FF49FF4AFF4BFF4CFF4DFFB2
:104AC0004EFF4FFF50FF51FF52FF53FF54FF55FF62
:104AD00056FF57FF58FF59FF5AFF000041004200A0
:104AE00043004400450046004700480049004A0092
:104AF0004B004C004D004E004F0050005100520042
:104B000053005400550056005700580059005A00F1
:104B10002100E0FFE1FFE5FFE2FFE3FFC000C1008D
:104B2000C200C300C400C500C600C700C800C90059
:104B3000CA00CB00CC00CD00CE00CF00D000D10009
:104B4000D200D300D400D500D600D800D900DA00B6
:104B5000DB00DC00DD00DE00780100010201040161
:104B6000060108010A010C010E01100112011401D5
:104B7000160118011A011C011E0120012201240145
:104B8000260128012A012C012E01300132013401B5
:104B9000360139013B013D013F014101430145011E
:104BA00047014A014C014E01500152015401560186
:104BB00058015A015C015E016001620164016601F5
:104BC00068016A016C016E01700172017401760165
:104BD00079017B017D019101910392039303940379
:104BE000950396039703980399039A039B039C03E9
:104BF0009D039E039F03A003A103A303A403A50396
:104C0000A603A703A803A903AA031004110412040E
:104C100013041404150416041704180419041A04C0
:104C20001B041C041D041E041F0420042104220470
:104C300023042404250426042704280429042A0420
:104C40002B042C042D042E042F040104020403045D
:104C50000404050406040704080409040A040B04F8
:104C60000C040E040F046021612162216321642180
:104C7000652166216721682169216A216B216C21E8
:104C80006D216E216F2121FF22FF23FF24FF25FFCD
:104C900026FF27FF28FF29FF2AFF2BFF2CFF2DFFD0
:104CA0002EFF2FFF30FF31FF32FF33FF34FF35FF80
:104CB00036FF37FF38FF39FF3AFF00001927000899
:104CC000C527000889270008E527000839270008BC
:104CD000F04C00080000002054000000442B0008A5
:104CE000444D000854000020DC670000542B0008ED
:104CF00000000000000000000000000000000000B4
:104D000000000000000000000000000000000000A3
:104D100044657370616369746F2E7761760000007B
:104D20000000000001000000100000000000000072
:104D300000A24A0400000000000000000100000082
:044D4000000000006F
:0400000508000131BD
:00000001FF
